S00D0000736E616B652E7372656305
S11300000C94E6000C9403010C9403010C9403017A
S11300100C9403010C9443010C9403010C9403010C
S11300200C9403010C9403010C9403010C9403013C
S11300300C9403010C94F3050C9403010C94030138
S11300400C94D80C0C9403010C9403010C9403013C
S11300500C946A0A0C94280A0C9403010C9403016E
S11300600C9403010C9403010C9403010C940301FC
S11300700C9403010C9403010C94030150726573F6
S113008073206120627574746F6E20746F207374B2
S113009061727420616761696E0047414D45204F6C
S11300A05645520043535345323031302F373230A6
S11300B03120536E616B652050726F6A65637420E2
S11300C062792048616E7320536F6E6700536E61CE
S11300D06B65003E013B01370133012F012B0127E2
S11300E00123011F011B01AD01A901A501A1019D6E
S11300F0019901950191018E018A01860182017D98
S1130100017901750171016C01680164015F015B92
S113011001560151014C01470142016492927D6CE8
S113012092926D809EA0C17C92924DE4A2A29D18F1
S11301302848FF4492926D468A926342FE037C9261
S1130140A27D868A92A2C3E0100E10E1C628102870
S1130150C7FC021C02FDF8040204F9FC0202FD8043
S113016080FE80816492924DFE9098677C828A7CA6
S113017003FE9090617C82827DFE2010FFFE403061
S113018040FFFE020203FE1028C7040202FD82FEA5
S113019083FE1010FF7C82925DFE909081FE92920D
S11301A083FE82827D7C828245FE92926D7E909057
S11301B07F1B5B3F32356C001B5B25646D001B5B52
S11301C0324A001B5B25643B2564480011241FBE92
S11301D0CFEFD8E0DEBFCDBF11E0A0E0B1E0E0EDAD
S11301E0F3E202C005900D92AC34B107D9F722E0D6
S11301F0ACE4B1E001C01D92A83BB207E1F70E9454
S11302006C080C94E6110C940000E8E6F0E08081A0
S113021082608083D99AECE6F0E080818F608083ED
S113022010924C01089510924C01089580914C0154
S113023018163CF580914D016FB7F89490914C01DC
S11302409230B4F021E030E091E0F901E35BFE4F3D
S11302504081F901E45BFE4F40839F5F292F30E02A
S113026040914C01042E000C550B241735076CF3F8
S113027090914C01915090934C0166231CF4789416
S113028008958FEF08951F920F920FB60F921124C5
S11302902F933F934F935F936F937F938F939F938A
S11302A0EF93FF9343B14F7080914C01883064F514
S11302B080E090E0642F70E09B01082E02C0359529
S11302C027950A94E2F720FF1BC02091550130E0E6
S11302D0082E02C0359527950A94E2F720FD10C038
S11302E0E0914C0121E02E0F20934C010E2E000CC6
S11302F0FF0BE35BFE4F808320914C01283024F4F4
S1130300019684309105C1F640935501FF91EF9118
S11303109F918F917F916F915F914F913F912F9119
S11303200F900FBE0F901F901895CF92DF92EF920F
S1130330FF92CF930E94CA0C0E94420E0E94F40DB9
S11303406B017C010E94F40DAB01BC014770552781
S113035066277078772364F4415051096109710963
S1130360486F5F6F6F6F7F6F4F5F5F4F6F4F7F4F50
S1130370D701C6018F709927AA27B078BB2354F4FC
S11303800197A109B109806F9F6FAF6FBF6F01968D
S1130390A11DB11D642F0E94D805F82EC3E632C0FA
S11303A00E94F40D6B017C010E94F40DAB01BC01B1
S11303B04770552766277078772364F441505109B4
S11303C061097109486F5F6F6F6F7F6F4F5F5F4F98
S11303D06F4F7F4FD701C6018F709927AA27B07836
S11303E0BB2354F40197A109B109806F9F6FAF6FCC
S11303F0BF6F0196A11DB11D642F0E94D805F82E70
S1130400C15081F08F2D0E94720B8111C9CF8F2DA5
S11304100E9478038111C4CF8F2D0E944B03811158
S1130420BFCF02C088E003C0F09292018F2DCF911C
S1130430FF90EF90DF90CF900895809192010895FE
S1130440CF93C82F0E94CD058F3090F08C2F0E943F
S1130450CD05833078F48C2F0E94D005873060F06E
S11304608C2F0E94D00591E0833038F090E005C0D5
S113047090E003C090E001C090E0892FCF910895EF
S1130480FF920F931F93CF93DF93D4E68091920151
S11304900E94CD05182FC82F809192010E94D0058B
S11304A0F82E082F0E94F40DDC01CB0183709927EC
S11304B0AA27B078BB2354F40197A109B1098C6F22
S11304C09F6FAF6FBF6F0196A11DB11D811107C052
S11304D0C13011F4C10F1FC0CFEFC10F1CC0813058
S11304E041F4CF3019F4CFEFC10F15C0C1E0C10FF3
S11304F012C0823041F4073019F40FEF0F0D0BC016
S113050001E00F0D08C0833031F4013011F40F0DF8
S113051002C00FEF0F0D602F8C2F0E94D805C82F3B
S1130520D150A1F00E94720B8111B0CF8C2F0E9488
S113053078038111ABCF8C2F0E944B038111A6CF7E
S11305408C2F0E9420028111A1CF02C088E003C039
S1130550C09392018C2FDF91CF911F910F91FF9047
S1130560089591E020919201281390E0892F089535
S1130570CF92DF92EF92FF92CF930E94CA0C0E9417
S1130580420E0E94F40D6B017C010E94F40DAB013C
S1130590BC014770552766277078772364F441506F
S11305A0510961097109486F5F6F6F6F7F6F4F5F0A
S11305B05F4F6F4F7F4FD701C6018F709927AA27CE
S11305C0B078BB2354F40197A109B109806F9F6FE0
S11305D0AF6FBF6F0196A11DB11D642F0E94D80596
S11305E0F82EC3E632C00E94F40D6B017C010E9418
S11305F0F40DAB01BC01477055276627707877234B
S113060064F44150510961097109486F5F6F6F6F5C
S11306107F6F4F5F5F4F6F4F7F4FD701C6018F7062
S11306209927AA27B078BB2354F40197A109B109EB
S1130630806F9F6FAF6FBF6F0196A11DB11D642FB7
S11306400E94D805F82EC15081F08F2D0E94720BA4
S11306508111C9CF8F2D0E9478038111C4CF8F2DB2
S11306600E94B1028111BFCF02C088E006C081E0C0
S113067080939401F09293018F2DCF91FF90EF908E
S1130680DF90CF9008958091930108951092940182
S11306900E94580D089590919301981307C081E02A
S11306A090919401911103C080E0089580E0089531
S11306B080919401089510929501089530919501C7
S11306C0131684F490919601891771F0E7E9F1E02B
S11306D090E003C02191281749F09F5F3913FACFA6
S11306E08FEF08958FEF089580E00895892F08957E
S11306F00E945E0391E08F3F09F490E0892F0895F2
S1130700CF92DF92EF92FF92CF9380919501883040
S11307100CF07DC00E94CA0C0E94420E0E94F40D8F
S11307206B017C010E94F40DAB01BC01477055279D
S113073066277078772364F441505109610971097F
S1130740486F5F6F6F6F7F6F4F5F5F4F6F4F7F4F6C
S1130750D701C6018F709927AA27B078BB2354F418
S11307600197A109B109806F9F6FAF6FBF6F0196A9
S1130770A11DB11D642F0E94D805F82EC3E632C016
S11307800E94F40D6B017C010E94F40DAB01BC01CD
S11307904770552766277078772364F441505109D0
S11307A061097109486F5F6F6F6F7F6F4F5F5F4FB4
S11307B06F4F7F4FD701C6018F709927AA27B07852
S11307C0BB2354F40197A109B109806F9F6FAF6FE8
S11307D0BF6F0196A11DB11D642F0E94D805F82E8C
S11307E0C150B9F08F2D0E94720B8111C9CF8F2D8A
S11307F00E9478038111C4CF8F2D0E94B102811110
S1130800BFCF8F2D0E944B038111BACF04C088E063
S11308100FC088E00DC080919501E82F082E000CD0
S1130820FF0BEA56FE4FF0828F5F809395018F2D68
S1130830CF91FF90EF90DF90CF9008958823B4F08C
S113084020919501821794F48F5F821764F4E82F46
S1130850082E000CFF0BEA56FE4F908131979083CF
S11308608F5F8217A4F321502093950108951F935D
S1130870CF93DF93C82F162F0E94D005D82F8C2F2B
S11308800E94CD05412F6D2F0E943E05DF91CF912F
S11308901F9108950E94550D882361F00E9458030A
S11308A0811108C00E94B8020E9443036CE30E94B5
S11308B0370408950E94550D81110BC00E945803FE
S11308C0882339F00E9446030E94430360E00E949B
S11308D0370408950E941D0260E00E9437040E94BC
S11308E0400261E20E9437040895CF93DF930E948F
S11308F0C9050E94E50A0E94230B6FE00E94370499
S11309000E942C0B60EF0E9437040E945B03C3E03B
S11309100E948003D82F0E94D205882321F063E32C
S11309208D2F0E943704C15099F70E9495010E94AF
S11309301D0261E20E943704DF91CF9108950F9365
S11309401F93CF93DF930E94230BD82F0E94950B04
S1130950C82F88230CF44CC00E94230B182FC230DC
S113096009F458C0C43009F445C0C33009F452C076
S1130970C53009F057C046C080910401909105012B
S113098044979093050180930401C43029F40E9494
S113099046030E945B0D22C0C53041F40E949501BC
S11309A00E941D0261E20E94370418C0812F0E9438
S11309B05E030E941E040E948003082F0E94D20539
S11309C0882321F063E3802F0E943704CD7FC13058
S11309D029F40E94380B60E00E94370460EF8D2FE9
S11309E00E9437046FE0812F0E94370481E031C0F8
S11309F080E02FC080910401909105018536910516
S1130A00A0F4C5CF8091040190910501853691052C
S1130A1028F215C080910401909105018536910555
S1130A2028F2AACFC130D1F6D4CF8091040190919D
S1130A30050144979093050180930401A8CF809108
S1130A40040190910501449790930501809304015A
S1130A50A5CFDF91CF911F910F910895809104014B
S1130A6090910501089588E592E0909305018093A3
S1130A700401089580E80E944C0C08951F93CF93BD
S1130A80DF93803108F05DC0683008F05AC0D42F7D
S1130A90162FC82F81E00E94740C812F877020E1EB
S1130AA0829FC00111249C2F9F70892B0E94740C7B
S1130AB08D2F0E94740CDF3021F48FE10E949C0C76
S1130AC01DC0D03F21F480E20E949C0C17C0D1329B
S1130AD021F485E20E949C0C11C0DC3321F484E2F1
S1130AE00E949C0C0BC0D33321F481E20E949C0C25
S1130AF005C0D11103C08EE10E949C0C6BE0611B08
S1130B0085E08C0F0E947A0C8BED90E00E94C50E5C
S1130B1085E20E949C0C63E082E30E947A0C0E94AE
S1130B2095089F938F937F936F938FE191E09F93A9
S1130B308F930E94890E0F900F900F900F900F903B
S1130B400F90DF91CF911F9108950F931F93CF932F
S1130B50DF93803190F48B01C82F83E00E94740CE2
S1130B608C2F8F700E94740CE801085F1F4F8991CD
S1130B700E94740CC017D107D1F7DF91CF911F9158
S1130B800F91089584E00E94740C82E00E94740C1A
S1130B9008958FE00E94740C089582958F700895D3
S1130BA08F70089583FB882780F991E08927089541
S1130BB020E1829FC00111246770862B089581E093
S1130BC081B98FEF87B98FE097E290938900809382
S1130BD08800109280008AE08093810082E08093F4
S1130BE06F0086BB08951F920F920FB60F921124C7
S1130BF02F933F934F935F936F937F938F939F9321
S1130C00AF93BF93EF93FF930E94350B8A3050F458
S1130C1012B80E94350BE82FF0E0EA5FFE4F8081A6
S1130C2088B94EC09091560181E08927809356017E
S1130C300E94350B8436D0F50E94350B9DEC899FBC
S1130C40912D1124969596959695990F292F220FFB
S1130C50220F920F891B8A3048F580915601811129
S1130C6016C00E94350B9DEC899F912D11249695F9
S1130C7096959695990F292F220F220F920F891B73
S1130C80E82FF0E0EA5FFE4F808188B916C00E9429
S1130C90350BEDEC8E9FE12D1124E695E695E69556
S1130CA0F0E0EA5FFE4F808188B907C08091560169
S1130CB0811102C018B801C018B88091560182B9D8
S1130CC0FF91EF91BF91AF919F918F917F916F9120
S1130CD05F914F913F912F910F900FBE0F901F90F6
S1130CE018950E943A050E94050140E060E07BE40B
S1130CF080E090E00E94D5090E94B20C7894089597
S1130D00CF93C4E06CE08C2F0E947A0C8BED90E0C2
S1130D100E94C50E63E08C2F0E947A0C8BED90E04C
S1130D200E94C50ECF5FC63169F7C4E06C2F85E120
S1130D300E947A0C8BED90E00E94C50E6C2F84E02B
S1130D400E947A0C8BED90E00E94C50ECF5FCD30EF
S1130D5069F7CF910895FF920F931F93CF93DF9379
S1130D6080E00E949C0C0E94930C0E94A90C63E0FA
S1130D7083E00E947A0C8DEC90E09F938F930E9405
S1130D809F0E65E083E00E947A0C80E20E949C0C36
S1130D9084EA90E09F938F930E949F0E85E20E94C5
S1130DA09C0C0E94C9050F900F900F900F90CFE0FC
S1130DB00F2EFFE0FF2EF02D0FEF10EFD5E16C2F7B
S1130DC08AE291E00E949E080DC02FE78CE293E036
S1130DD0215080409040E1F700C000000E941601BD
S1130DE08F3FA9F50E94AD088111EFCF0E94F40D49
S1130DF0DC01CB0183709927AA27B078BB2354F474
S1130E000197A109B1098C6F9F6FAF6FBF6F0196F6
S1130E10A11DB11D81309105A105B10591F02CF4FE
S1130E20892B8A2B8B2B59F0CACF82309105A105CF
S1130E30B10549F00397A105B10539F0C0CFCD2F15
S1130E40BECFCF2DBCCFC02FBACFC12FB8CFDF912B
S1130E50CF911F910F91FF9008950E94930C0E94CF
S1130E6075040E9477080E94DF050E94BD0A0E9453
S1130E7033050E9480060E9413010E94230A0895EC
S1130E80CF93DF936EE08AE00E947A0C8AE990E0C7
S1130E909F938F930E949F0E6FE08AE00E947A0CCA
S1130EA08CE790E09F938F930E949F0E0F900F907A
S1130EB00F900F90C2EBD2E009C0888199810E9403
S1130EC04B0E8F7D8E3411F40E946D070E94160123
S1130ED08F3F99F3DF91CF9108950E942D070E94CF
S1130EE074070E944007F9CF2F923F924F925F926E
S1130EF06F927F928F929F92AF92BF92CF92DF9226
S1130F00EF92FF920F931F93CF93DF930E94CA0C2B
S1130F106B017C010E94CA0C4B015C01212C33241F
S1130F203A940E944A0480E00E94C90AEC0181E0DC
S1130F300E94C90A3C010E941601182F8F3F09F034
S1130F40AEC00E941C0A882309F497C0E2EBF2E0C9
S1130F50808191810E944B0E211005C08B3109F4D0
S1130F608EC0932D0DC0F1E02F1205C08B3509F40E
S1130F708AC0932D05C022E022128AC0982F832DA7
S1130F80933429F090C0C93CD10544F403C0212C0A
S1130F9001C0212C81E00E944F0B41C0123049F066
S1130FA0932D832D913429F030E2631633E07306D8
S1130FB024F080E00E944F0B32C0133029F09434A7
S1130FC019F0C032D34024F083E00E944F0B27C0B5
S1130FD0113031F0923421F059EC6516710424F487
S1130FE082E00E944F0B1BC08F7D8035A1F409C0A5
S1130FF00E941301CF7DC03591F0CE3411F40E94CC
S11310006D07E2EBF2E0808191810E944B0EC82FC4
S11310108111EECF04C08E3411F40E946D070E943A
S1131020CA0C9501840108511C4F2F4F3F4F601784
S113103071078207930730F00E946A040E94CA0C69
S11310404B015C010E94CA0C2B013C010E942E053D
S1131050A7019601280F391F411D511D4216530641
S11310606406750608F45DCF0E949F04882309F185
S11310700E94CA0C6B017C0154CF832D0AC0222428
S11310802394832D06C06894222421F8832D01C063
S1131090212CC93CD1050CF47DCF932D85CF882319
S11310A009F478CF70CFC93CD1050CF472CF212C50
S11310B079CFDF91CF911F910F91FF90EF90DF9047
S11310C0CF90BF90AF909F908F907F906F905F90E4
S11310D04F903F902F9008950E9471060E94AB0696
S11310E00E942D070E9474070E944007F9CF1092B6
S11310F05701109258011092590110925A01089503
S113110040915701509158016091590170915A01D1
S1131110480F591F611D711D409357015093580189
S11311206093590170935A01089560915701709129
S113113058018091590190915A01089560931001CA
S113114090935F0180935E0110926101109260019F
S113115010925D0110925C0108950F931F93CF9339
S1131160DF93CDB7DEB728970FB6F894DEBF0FBE76
S1131170CDBFE0916001F0916101309781F014914D
S113118010FF06C0109261011092600100E06BC074
S11311903196F0936101E093600100E064C0E09156
S11311A05C01F0915D01309709F449C0CF010196CB
S11311B090935D0180935C01E081E1110AC010927B
S11311C05D0110925C0180E180935B0100E010E01E
S11311D04AC08FE98E0F8A3170F4F0E0EE0FFF1FE2
S11311E0EB5DFF4F85919491909361018093600131
S11311F000E010E038C08FEB8E0F8A3170F4F0E01D
S1131200EE0FFF1FEB59FF4F85919491909361016D
S11312108093600100E010E026C080ED8E0F8A30DC
S113122000F5F0E0EE0FFF1FED58FF4F859194910C
S1131230909361018093600100E010E014C08091FC
S11312405E0190915F0101E0009709F000E0909346
S11312505D0180935C0110925F0110925E0110E0C9
S113126002C000E010E00E94C20520911001FE01BE
S11312703896CE010196112314F4208301C0108204
S1131280110F3197E817F907B1F71982BE016F5FA3
S11312907F4F8FE00E94A50580915B01882389F030
S11312A0815080935B01002311F0882311F090E0BA
S11312B003C091E001C091E081E0992329F080E02E
S11312C003C00023A1F3F7CF28960FB6F894DEBF2E
S11312D00FBECDBFDF91CF911F910F910895CF9392
S11312E0C82F8A3019F48DE00E946F099FB7907857
S11312F002C0992329F180919F018F3FD1F3F89483
S1131300E0919E0181E08E0F80939E01F0E0E05613
S1131310FE4FC08380919F018F5F80939F018091D6
S11313209E018F3F11F410929E01E1ECF0E0808168
S113133080628083992339F0789480E090E005C03E
S113134081E090E002C080E090E0CF910895809128
S1131350B1028823E1F32FB72078F89480919F029B
S11313603091B10290E0831B91095AF4E0919F02FD
S11313708091B102F0E0E81BF109E055FD4F808156
S11313800AC0E0919F028091B102F0E0E81BF109EC
S1131390E056FD4F80819091B10291509093B1023B
S11313A0222309F0789490E0089510929E011092FF
S11313B09F0110929F021092B1021092B0024093CA
S11313C06201DC01CB01880F991FAA1FBB1F880F84
S11313D0991FAA1FBB1F9C01AD01220F331F441F7D
S11313E0551F60E072E18AE790E00E948A0DBA011D
S11313F0A9014F5F5F4F6F4F7F4FDB01CA011AF4A2
S11314000196A11DB11DB595A7959795879501974F
S11314109093C5008093C400E1ECF0E088E1808300
S1131420808180688083E2EBF2E081E191E0938344
S113143082839183808308959091B10281E0911118
S113144001C080E0089510929F021092B1020895A5
S11314501F920F920FB60F9211242F938F939F9385
S1131460EF93FF9380919F01882329F180919E013E
S113147020919F0190E0821B91095AF4E0919E0112
S113148080919F01F0E0E81BF109E156FD4F908146
S11314900AC0E0919E0180919F01F0E0E81BF109F0
S11314A0E056FE4F908180919F01815080939F016F
S11314B09093C60005C0E1ECF0E080818F7D8083CD
S11314C0FF91EF919F918F912F910F900FBE0F90ED
S11314D01F9018951F920F920FB60F9211242F93FD
S11314E03F934F935F936F937F938F939F93AF93A8
S11314F0BF93CF93EF93FF93C091C6008091620195
S1131500882349F080919F018F3F29F060E070E0CB
S11315108C2F0E946F098091B102803120F081E00C
S11315208093B00218C0CD3009F4CAE0E0919F0264
S113153081E08E0F80939F02F0E0E056FD4FC08360
S11315408091B1028F5F8093B10280919F028031BC
S113155011F410929F02FF91EF91CF91BF91AF913F
S11315609F918F917F916F915F914F913F912F91B7
S11315700F900FBE0F901F90189540E060E07BE441
S113158080E090E00E94D509789486E880937A0000
S1131590089510927C00811106C0ECE7F0E0808190
S11315A08564808305C0ECE7F0E0808184648083F7
S11315B0EAE7F0E0808180648083808186FDFDCF4E
S11315C080917800909179000895FF920F931F9372
S11315D0CF93DF930E94CA0C0E94420E0E94F40D26
S11315E02DE030E040E050E00E948A0DF62E0E948B
S11315F0F40D22E02093670110926501D1E0D093AD
S1131600660126E030E040E050E00E948A0DC1E02F
S1131610C60F6C2F81E08F0D0E94D80508E611E0FB
S1131620F80180836C2F82E08F0D0E94D805F801A9
S11316308183D0936401D0936301DF91CF911F9193
S11316400F91FF900895E09166010E2E000CFF0BA0
S1131650E859FE4F80810895E09165010E2E000C3B
S1131660FF0BE859FE4F808108958091670108952A
S113167090916501E92F092E000CFF0BE859FE4FEC
S113168080819F5F913219F09093650102C010929E
S1131690650190916701915090936701089582309C
S11316A029F4909164019923C1F014C0811105C0FB
S11316B090916401923071F410C0833029F49091B8
S11316C06401913039F409C0813039F49091640196
S11316D0933019F08093630108958091640180939D
S11316E063010895909165013091660140E00DC059
S11316F0E92F092E000CFF0BE859FE4F2081281713
S113170089F09F5F91320CF0942F9313F1CFE32F64
S1131710330FFF0BE859FE4F91E02081281719F091
S113172090E001C091E0892F0895CF93DF938091D9
S11317306701813208F0AAC0E09166010E2E000C08
S1131740FF0BE859FE4F80810E94CD05D82FC82F8A
S1131750E09166010E2E000CFF0BE859FE4F8081CC
S11317600E94D005682F909163019130A1F048F058
S1131770923061F09330D9F4D13091F0CFEFCD0FA6
S113178016C0873079F061E0680F11C0813061F0D4
S11317906FEF680F0CC0DF3049F0C1E0CD0F07C018
S11317A0C0E105C060E003C068E001C0C0E08C2F68
S11317B00E94D805C82F80916301809364018C2F07
S11317C00E94720B8823B1F0E09165010E2E000C8B
S11317D0FF0BE859FE4F8081C81761F00E94930CFB
S11317E063E083E00E947A0C89E391E00E94CC0ECE
S11317F08EEF4FC0809166018F5F813219F0809324
S1131800660102C010926601E09166010E2E000C82
S1131810FF0BE859FE4FC083809167018F5F80936F
S113182067018C2F0E94780381110AC08C2F0E94BB
S11318304B03811105C08C2F0E94B102882301F152
S113184080916701813220F58C2F0E944B038823FD
S113185031F08AE090E00E94800884E01AC08C2F66
S11318600E94B102882331F085E090E00E94800854
S113187085E00FC083E090E00E94800882E009C008
S113188081E090E00E94800881E003C08DEF01C0F8
S113189083E0DF91CF91089594B1906B94B92C9A21
S11318A090E59CBD883021F0803211F0823019F42B
S11318B091E09DBD01C01DBC803269F028F48830E0
S11318C071F0803161F00EC0803429F0803851F419
S11318D08CB581608CBD8CB582608CBD03C08CB529
S11318E081608CBD2C9808958EBD0DB407FEFDCF8C
S11318F08EB50895282F082E000C330B3F938F9339
S1131900862F062E000C990B9F936F9383EC91E026
S11319109F938F930E949F0E0F900F900F900F90A4
S11319200F900F9008958EEB91E09F938F930E94F8
S11319309F0E0F900F9008951F928F9388EB91E064
S11319409F938F930E949F0E0F900F900F900F9074
S1131950089581EB91E09F938F930E949F0E0F90C7
S11319600F90089510928E0110928F0110929001A1
S11319701092910116BC8CE787BD82E084BD83E0A0
S113198085BDEEE6F0E080818260808385B382705D
S113199085BB08952FB7F89460918E0170918F01E3
S11319A0809190019091910122230CF478940895F0
S11319B01F920F920FB60F9211242F933F934F93C0
S11319C05F936F937F938F939F93AF93BF93EF93A3
S11319D0FF9380918E0190918F01A0919001B0911D
S11319E091010196A11DB11D80938E0190938F01E9
S11319F0A0939001B093910180918A0190918B0101
S1131A00A0918C01B0918D010196A11DB11D80930F
S1131A108A0190938B01A0938C01B0938D01609106
S1131A208A0170918B0180918C0190918D0120E24B
S1131A303EE440E050E00E94680D60938A01709398
S1131A408B0180938C0190938D0180918A019091F8
S1131A508B01A0918C01B0918D010B97A105B1056B
S1131A6020F481E0809389010FC080918A019091D4
S1131A708B01A0918C01B0918D0188389341A1050F
S1131A80B10510F010928901FF91EF91BF91AF91D0
S1131A909F918F917F916F915F914F913F912F9182
S1131AA00F900FBE0F901F90189580918901089593
S1131AB010928901089588E893E1A0E0B0E0809352
S1131AC08A0190938B01A0938C01B0938D010895AA
S1131AD0A1E21A2EAA1BBB1BFD010DC0AA1FBB1F2E
S1131AE0EE1FFF1FA217B307E407F50720F0A21BA0
S1131AF0B30BE40BF50B661F771F881F991F1A940D
S1131B0069F760957095809590959B01AC01BD0136
S1131B10CF010895052E97FB1EF400940E94A10D99
S1131B2057FD07D00E94680D07FC03D04EF40C94B7
S1131B30A10D50954095309521953F4F4F4F5F4FE4
S1131B40089590958095709561957F4F8F4F9F4F25
S1131B5008958F929F92AF92BF92CF92DF92EF92AD
S1131B60FF92CF93DF93EC01688179818A819B8115
S1131B70611571058105910521F464E279ED8BE528
S1131B8097E02DE133EF41E050E00E948A0D4901D6
S1131B905A019B01AC01A7EAB1E40E948D116B01CB
S1131BA07C01ACEEB4EFA50194010E949B11DC0111
S1131BB0CB018C0D9D1DAE1DBF1DB7FF03C001974A
S1131BC0A109B04888839983AA83BB83BC01CD0152
S1131BD09F77DF91CF91FF90EF90DF90CF90BF90F0
S1131BE0AF909F908F9008958F929F92AF92BF92E3
S1131BF0CF92DF92EF92FF92609100017091010108
S1131C00809102019091030161157105810591058F
S1131C1021F464E279ED8BE597E02DE133EF41E0C7
S1131C2050E00E948A0D49015A019B01AC01A7EAC8
S1131C30B1E40E948D116B017C01ACEEB4EFA501FF
S1131C4094010E949B11DC01CB018C0D9D1DAE1DE6
S1131C50BF1DB7FF03C00197A109B04880930001DD
S1131C6090930101A0930201B0930301BC01CD0143
S1131C709F77FF90EF90DF90CF90BF90AF909F90B1
S1131C808F90089560930001709301018093020185
S1131C90909303010895CF93DF93EC012B8120FFF0
S1131CA033C026FF0AC02F7B2B838E819F81019630
S1131CB09F838E838A8190E029C022FF0FC0E88130
S1131CC0F9818081082E000C990B009719F4206289
S1131CD02B831AC03196F983E8830EC0EA85FB850D
S1131CE0099597FF09C02B81019611F080E201C08C
S1131CF080E1822B8B8308C02E813F812F5F3F4F71
S1131D003F832E83992702C08FEF9FEFDF91CF91FE
S1131D100895A0E0B0E0EFE8FEE00C94B011AE014D
S1131D204B5F5F4FFA0161917191AF018091B402F1
S1131D309091B5020E94FC0EE2E00C94CC11A0E05C
S1131D40B0E0E5EAFEE00C94AE11AE01495F5F4FEE
S1131D50DA016D917D91AD0102EB12E0F80182810F
S1131D609381DC0113962C911397286013962C937E
S1131D700E94FC0ED8011296ED91FC9113972381D9
S1131D80277F2383E4E00C94CA116091B40270911C
S1131D90B5020E94F31008950F931F93CF93DF931E
S1131DA0E091B402F091B502238121FF1BC08C01A4
S1131DB0D0E0C0E0F80181918F016091B40270918C
S1131DC0B502DB011896ED91FC911997882331F047
S1131DD00995892B79F3DFEFCFEFECCF8AE00995F2
S1131DE0892B19F08FEF9FEF02C08D2F9C2FDF916D
S1131DF0CF911F910F910895ABE0B0E0E2E0FFE0D6
S1131E000C94A0116C017B018A01FC0117821682DB
S1131E10838181FFCCC1CE0101963C01F6019381FF
S1131E20F70193FD859193FF81917F01882309F444
S1131E30BAC1853239F493FD859193FF81917F0175
S1131E40853229F4B60190E00E94F310E7CF912C7B
S1131E50212C312CFFE1F315D8F08B3279F038F4D2
S1131E60803279F08332A1F4232D20611DC08D329C
S1131E7061F0803369F4232D216016C0832D8260C4
S1131E80382EE32DE4603E2E2AC0F32DF8601DC0E9
S1131E9037FC2DC020ED280F2A3040F08E32B9F4E3
S1131EA036FC81C1232D2064322E19C036FE06C0B3
S1131EB08AE0989E200D1124922E11C0EAE02E9EF5
S1131EC0200D1124222EF32DF0623F2E08C08C36F3
S1131ED021F4832D8068382E02C0883641F4F7013E
S1131EE093FD859193FF81917F018111B3CF982F49
S1131EF09F7D9554933028F40C5F1F4F9FE3998383
S1131F000DC0833631F0833771F0833509F059C041
S1131F1021C0F801808189830E5F1F4F8824839438
S1131F20912C530113C02801F2E04F0E511CF8010B
S1131F30A080B18036FE03C0692D70E002C06FEF4F
S1131F407FEFC5010E94E8104C018201F32DFF7759
S1131F503F2E16C0280122E0420E511CF801A08039
S1131F60B18036FE03C0692D70E002C06FEF7FEFD1
S1131F70C5010E94DD104C01F32DF0683F2E820153
S1131F8033FC1BC0822D90E088169906B0F4B6018C
S1131F9080E290E00E94F3102A94F4CFF50137FC1C
S1131FA0859137FE81915F01B60190E00E94F310A4
S1131FB021102A9421E0821A91088114910471F766
S1131FC0E8C0843611F0893641F5F80137FE07C0C0
S1131FD060817181828193810C5F1F4F08C0608191
S1131FE07181072E000C880B990B0E5F1F4FF32D88
S1131FF0FF763F2E97FF09C0909580957095619567
S11320007F4F8F4F9F4FF0683F2E2AE030E0A301AF
S11320100E942F11882E861845C0853731F4232D50
S11320202F7EB22E2AE030E025C0932D997FB92E61
S11320308F36C1F018F4883579F0B5C0803719F0BF
S1132040883721F0B0C0E92FE061BE2EB4FE0DC088
S1132050FB2DF460BF2E09C034FE0AC0292F266070
S1132060B22E06C028E030E005C020E130E002C016
S113207020E132E0F801B7FE07C0608171818281FE
S113208093810C5F1F4F06C06081718180E090E0F6
S11320900E5F1F4FA3010E942F11882E8618FB2D5F
S11320A0FF773F2E36FE0DC0232D2E7FA22E8914DE
S11320B058F434FE0BC032FC09C0832D8E7EA82E4A
S11320C005C0B82CA32C03C0B82C01C0B92CA4FEA5
S11320D00FC0FE01E80DF11D8081803321F49A2D9B
S11320E0997EA92E09C0A2FE06C0B394B39404C07D
S11320F08A2D867809F0B394A3FC11C0A0FE06C013
S1132100B21488F4280C922C9B180EC0B21460F4FC
S1132110B60180E290E00E94F310B394F7CFB214BA
S113212018F42B1802C0982C212CA4FE10C0B60160
S113213080E390E00E94F310A2FE17C0A1FC03C04C
S113214088E790E002C088E590E0B6010CC08A2DD3
S1132150867859F0A1FE02C08BE201C080E2A7FCA0
S11321608DE2B60190E00E94F310891438F4B601B0
S113217080E390E00E94F3109A94F7CF8A94F301DD
S1132180E80DF11D8081B60190E00E94F3108110EA
S1132190F5CF222009F442CEB60180E290E00E94FD
S11321A0F3102A94F6CFF6018681978102C08FEF4F
S11321B09FEF2B96E2E10C94BC11FC010590615059
S11321C070400110D8F7809590958E0F9F1F089549
S11321D0FC016150704001900110D8F780959095F2
S11321E08E0F9F1F08950F931F93CF93DF93FB01CF
S11321F0238121FD03C08FEF9FEF2CC022FF16C067
S113220046815781248135814217530744F4A081C4
S1132210B1819D012F5F3F4F318320838C932681B1
S113222037812F5F3F4F3783268314C08B01EC0126
S1132230FB010084F185E02D0995892BE1F6D80195
S113224016968D919C911797019617969C938E9351
S11322501697CE01DF91CF911F910F910895FA0146
S1132260AA27283051F1203181F1E8946F936E7FD1
S11322706E5F7F4F8F4F9F4FAF4FB1E03ED0B4E0C2
S11322803CD0670F781F891F9A1FA11D680F791F03
S11322908A1F911DA11D6A0F711D811D911DA11D14
S11322A020D009F468943F912AE0269F1124301924
S11322B0305D3193DEF6CF010895462F4770405DBF
S11322C04193B3E00FD0C9F7F6CF462F4F70405D6E
S11322D04A3318F0495D31FD4052419302D0A9F7C9
S11322E0EACFB4E0A6959795879577956795BA95C3
S11322F0C9F700976105710508959B01AC010A2E89
S113230006945795479537952795BA95C9F7620F5F
S1132310731F841F951FA01D08950E94D711A59FA8
S1132320900DB49F900DA49F800D911D11240895CC
S1132330B7FF0C948D110E948D11821B930B08958D
S11323402F923F924F925F926F927F928F929F92C1
S1132350AF92BF92CF92DF92EF92FF920F931F93AF
S1132360CF93DF93CDB7DEB7CA1BDB0B0FB6F89460
S1132370DEBF0FBECDBF09942A88398848885F84A0
S11323806E847D848C849B84AA84B984C884DF8011
S1132390EE80FD800C811B81AA81B981CE0FD11DF5
S11323A00FB6F894DEBF0FBECDBFED010895A29F16
S11323B0B001B39FC001A39F700D811D1124911D15
S11323C0B29F700D811D1124911D0895F894FFCFC3
S11323D00100000058023F065B4F666D7D077F6F6A
S11323E00F00000003000000006F09A7090000535C
S11323F0636F72653A20256C7500534E414B45203E
S1132400343433373432363400636F6C6C69736937
S10F24106F6E206465746563746564007D
S9030000FC
